{
  "contractName": "MaintenanceLog",
  "abi": [
    {
      "anonymous": false,
      "inputs": [
        {
          "indexed": false,
          "internalType": "uint256",
          "name": "timestamp",
          "type": "uint256"
        },
        {
          "indexed": false,
          "internalType": "string",
          "name": "machineId",
          "type": "string"
        },
        {
          "indexed": false,
          "internalType": "string",
          "name": "description",
          "type": "string"
        }
      ],
      "name": "LogMaintenance",
      "type": "event"
    },
    {
      "inputs": [
        {
          "internalType": "uint256",
          "name": "",
          "type": "uint256"
        }
      ],
      "name": "maintenanceLogs",
      "outputs": [
        {
          "internalType": "uint256",
          "name": "timestamp",
          "type": "uint256"
        },
        {
          "internalType": "string",
          "name": "machineId",
          "type": "string"
        },
        {
          "internalType": "string",
          "name": "description",
          "type": "string"
        }
      ],
      "stateMutability": "view",
      "type": "function",
      "constant": true
    },
    {
      "inputs": [
        {
          "internalType": "string",
          "name": "machineId",
          "type": "string"
        },
        {
          "internalType": "string",
          "name": "description",
          "type": "string"
        }
      ],
      "name": "logMaintenance",
      "outputs": [],
      "stateMutability": "nonpayable",
      "type": "function"
    },
    {
      "inputs": [],
      "name": "getMaintenanceLogs",
      "outputs": [
        {
          "components": [
            {
              "internalType": "uint256",
              "name": "timestamp",
              "type": "uint256"
            },
            {
              "internalType": "string",
              "name": "machineId",
              "type": "string"
            },
            {
              "internalType": "string",
              "name": "description",
              "type": "string"
            }
          ],
          "internalType": "struct MaintenanceLog.Maintenance[]",
          "name": "",
          "type": "tuple[]"
        }
      ],
      "stateMutability": "view",
      "type": "function",
      "constant": true
    }
  ],
  "bytecode": "0x608060405234801561001057600080fd5b506109e1806100206000396000f3fe608060405234801561001057600080fd5b50600436106100415760003560e01c8063d2faa78014610046578063d9d0961514610064578063dc996b6f14610080575b600080fd5b61004e6100b2565b60405161005b9190610779565b60405180910390f35b61007e60048036038101906100799190610574565b61023f565b005b61009a600480360381019061009591906105e0565b61030a565b6040516100a99392919061079b565b60405180910390f35b60606000805480602002602001604051908101604052809291908181526020016000905b82821015610236578382906000526020600020906003020160405180606001604052908160008201548152602001600182018054610113906108f3565b80601f016020809104026020016040519081016040528092919081815260200182805461013f906108f3565b801561018c5780601f106101615761010080835404028352916020019161018c565b820191906000526020600020905b81548152906001019060200180831161016f57829003601f168201915b505050505081526020016002820180546101a5906108f3565b80601f01602080910402602001604051908101604052809291908181526020018280546101d1906108f3565b801561021e5780601f106101f35761010080835404028352916020019161021e565b820191906000526020600020905b81548152906001019060200180831161020157829003601f168201915b505050505081525050815260200190600101906100d6565b50505050905090565b600060405180606001604052804281526020018481526020018381525090806001815401808255809150506001900390600052602060002090600302016000909190919091506000820151816000015560208201518160010190805190602001906102ab929190610454565b5060408201518160020190805190602001906102c8929190610454565b5050507f85b379374d218f4bf258a2062a1ad3c36135e0be05b31e24ac257640dec6af904283836040516102fe9392919061079b565b60405180910390a15050565b6000818154811061031a57600080fd5b9060005260206000209060030201600091509050806000015490806001018054610343906108f3565b80601f016020809104026020016040519081016040528092919081815260200182805461036f906108f3565b80156103bc5780601f10610391576101008083540402835291602001916103bc565b820191906000526020600020905b81548152906001019060200180831161039f57829003601f168201915b5050505050908060020180546103d1906108f3565b80601f01602080910402602001604051908101604052809291908181526020018280546103fd906108f3565b801561044a5780601f1061041f5761010080835404028352916020019161044a565b820191906000526020600020905b81548152906001019060200180831161042d57829003601f168201915b5050505050905083565b828054610460906108f3565b90600052602060002090601f01602090048101928261048257600085556104c9565b82601f1061049b57805160ff19168380011785556104c9565b828001600101855582156104c9579182015b828111156104c85782518255916020019190600101906104ad565b5b5090506104d691906104da565b5090565b5b808211156104f35760008160009055506001016104db565b5090565b600061050a61050584610811565b6107e0565b90508281526020810184848401111561052257600080fd5b61052d8482856108b1565b509392505050565b600082601f83011261054657600080fd5b81356105568482602086016104f7565b91505092915050565b60008135905061056e81610994565b92915050565b6000806040838503121561058757600080fd5b600083013567ffffffffffffffff8111156105a157600080fd5b6105ad85828601610535565b925050602083013567ffffffffffffffff8111156105ca57600080fd5b6105d685828601610535565b9150509250929050565b6000602082840312156105f257600080fd5b60006106008482850161055f565b91505092915050565b60006106158383610704565b905092915050565b600061062882610851565b6106328185610874565b93508360208202850161064485610841565b8060005b8581101561068057848403895281516106618582610609565b945061066c83610867565b925060208a01995050600181019050610648565b50829750879550505050505092915050565b600061069d8261085c565b6106a78185610885565b93506106b78185602086016108c0565b6106c081610983565b840191505092915050565b60006106d68261085c565b6106e08185610896565b93506106f08185602086016108c0565b6106f981610983565b840191505092915050565b600060608301600083015161071c600086018261075b565b50602083015184820360208601526107348282610692565b9150506040830151848203604086015261074e8282610692565b9150508091505092915050565b610764816108a7565b82525050565b610773816108a7565b82525050565b60006020820190508181036000830152610793818461061d565b905092915050565b60006060820190506107b0600083018661076a565b81810360208301526107c281856106cb565b905081810360408301526107d681846106cb565b9050949350505050565b6000604051905081810181811067ffffffffffffffff8211171561080757610806610954565b5b8060405250919050565b600067ffffffffffffffff82111561082c5761082b610954565b5b601f19601f8301169050602081019050919050565b6000819050602082019050919050565b600081519050919050565b600081519050919050565b6000602082019050919050565b600082825260208201905092915050565b600082825260208201905092915050565b600082825260208201905092915050565b6000819050919050565b82818337600083830152505050565b60005b838110156108de5780820151818401526020810190506108c3565b838111156108ed576000848401525b50505050565b6000600282049050600182168061090b57607f821691505b6020821081141561091f5761091e610925565b5b50919050565b7f4e487b7100000000000000000000000000000000000000000000000000000000600052602260045260246000fd5b7f4e487b7100000000000000000000000000000000000000000000000000000000600052604160045260246000fd5b6000601f19601f8301169050919050565b61099d816108a7565b81146109a857600080fd5b5056fea264697066735822122054dad83234f7f46339eb4ed229cc7beb839d20e221031f0a6dc4a691a275b7a364736f6c63430008000033",
  "immutableReferences": {},
  "source": "// SPDX-License-Identifier: MIT\r\npragma solidity ^0.8.0;\r\n\r\ncontract MaintenanceLog {\r\n    struct Maintenance {\r\n        uint timestamp;\r\n        string machineId;\r\n        string description;\r\n    }\r\n\r\n    Maintenance[] public maintenanceLogs;\r\n\r\n    event LogMaintenance(uint timestamp, string machineId, string description);\r\n\r\n    function logMaintenance(string memory machineId, string memory description) public {\r\n        maintenanceLogs.push(Maintenance(block.timestamp, machineId, description));\r\n        emit LogMaintenance(block.timestamp, machineId, description);\r\n    }\r\n\r\n    function getMaintenanceLogs() public view returns (Maintenance[] memory) {\r\n        return maintenanceLogs;\r\n    }\r\n}\r\n",
  "sourcePath": "C:\\Users\\SEC\\Desktop\\predictive-maintenance\\smart_contract\\contracts\\MaintenanceLog.sol",
  "compiler": {
    "name": "solc",
    "version": "0.8.0+commit.c7dfd78e.Emscripten.clang"
  },
  "schemaVersion": "3.4.16",
  "updatedAt": "2024-10-27T08:34:39.732Z",
  "networkType": "ethereum",
  "devdoc": {
    "kind": "dev",
    "methods": {},
    "version": 1
  },
  "userdoc": {
    "kind": "user",
    "methods": {},
    "version": 1
  }
}